{
  "_format": "hh-sol-artifact-1",
  "contractName": "MusicFactory",
  "sourceName": "contracts/MusicFactory.sol",
  "abi": [
    {
      "inputs": [
        {
          "internalType": "address",
          "name": "_verify",
          "type": "address"
        }
      ],
      "stateMutability": "nonpayable",
      "type": "constructor"
    },
    {
      "inputs": [
        {
          "internalType": "address",
          "name": "owner",
          "type": "address"
        }
      ],
      "name": "OwnableInvalidOwner",
      "type": "error"
    },
    {
      "inputs": [
        {
          "internalType": "address",
          "name": "account",
          "type": "address"
        }
      ],
      "name": "OwnableUnauthorizedAccount",
      "type": "error"
    },
    {
      "anonymous": false,
      "inputs": [
        {
          "indexed": true,
          "internalType": "address",
          "name": "creator",
          "type": "address"
        },
        {
          "indexed": false,
          "internalType": "address",
          "name": "collectionAddress",
          "type": "address"
        }
      ],
      "name": "MusicCollectionCreated",
      "type": "event"
    },
    {
      "anonymous": false,
      "inputs": [
        {
          "indexed": true,
          "internalType": "address",
          "name": "previousOwner",
          "type": "address"
        },
        {
          "indexed": true,
          "internalType": "address",
          "name": "newOwner",
          "type": "address"
        }
      ],
      "name": "OwnershipTransferred",
      "type": "event"
    },
    {
      "anonymous": false,
      "inputs": [
        {
          "indexed": false,
          "internalType": "address",
          "name": "trader",
          "type": "address"
        },
        {
          "indexed": false,
          "internalType": "address",
          "name": "subject",
          "type": "address"
        },
        {
          "indexed": false,
          "internalType": "bool",
          "name": "isBuy",
          "type": "bool"
        },
        {
          "indexed": false,
          "internalType": "uint256",
          "name": "shareAmount",
          "type": "uint256"
        },
        {
          "indexed": false,
          "internalType": "uint256",
          "name": "ethAmount",
          "type": "uint256"
        },
        {
          "indexed": false,
          "internalType": "uint256",
          "name": "protocolEthAmount",
          "type": "uint256"
        },
        {
          "indexed": false,
          "internalType": "uint256",
          "name": "subjectEthAmount",
          "type": "uint256"
        },
        {
          "indexed": false,
          "internalType": "uint256",
          "name": "supply",
          "type": "uint256"
        }
      ],
      "name": "Trade",
      "type": "event"
    },
    {
      "inputs": [
        {
          "internalType": "address",
          "name": "sharesSubject",
          "type": "address"
        },
        {
          "internalType": "uint256",
          "name": "amount",
          "type": "uint256"
        }
      ],
      "name": "buyShares",
      "outputs": [],
      "stateMutability": "payable",
      "type": "function"
    },
    {
      "inputs": [
        {
          "internalType": "string",
          "name": "_tokenString",
          "type": "string"
        },
        {
          "internalType": "address",
          "name": "_to",
          "type": "address"
        },
        {
          "internalType": "string",
          "name": "_songTitle",
          "type": "string"
        },
        {
          "internalType": "bytes",
          "name": "_signature",
          "type": "bytes"
        }
      ],
      "name": "createMusicCollection",
      "outputs": [],
      "stateMutability": "nonpayable",
      "type": "function"
    },
    {
      "inputs": [
        {
          "internalType": "string",
          "name": "_tokenString",
          "type": "string"
        },
        {
          "internalType": "address",
          "name": "_to",
          "type": "address"
        },
        {
          "internalType": "string",
          "name": "_songTitle",
          "type": "string"
        },
        {
          "internalType": "string",
          "name": "_limited",
          "type": "string"
        }
      ],
      "name": "createMusicCollectionTwo",
      "outputs": [],
      "stateMutability": "nonpayable",
      "type": "function"
    },
    {
      "inputs": [
        {
          "internalType": "address",
          "name": "sharesSubject",
          "type": "address"
        },
        {
          "internalType": "uint256",
          "name": "amount",
          "type": "uint256"
        }
      ],
      "name": "getBuyPrice",
      "outputs": [
        {
          "internalType": "uint256",
          "name": "",
          "type": "uint256"
        }
      ],
      "stateMutability": "view",
      "type": "function"
    },
    {
      "inputs": [
        {
          "internalType": "address",
          "name": "sharesSubject",
          "type": "address"
        },
        {
          "internalType": "uint256",
          "name": "amount",
          "type": "uint256"
        }
      ],
      "name": "getBuyPriceAfterFee",
      "outputs": [
        {
          "internalType": "uint256",
          "name": "",
          "type": "uint256"
        }
      ],
      "stateMutability": "view",
      "type": "function"
    },
    {
      "inputs": [
        {
          "internalType": "uint256",
          "name": "supply",
          "type": "uint256"
        },
        {
          "internalType": "uint256",
          "name": "amount",
          "type": "uint256"
        }
      ],
      "name": "getPrice",
      "outputs": [
        {
          "internalType": "uint256",
          "name": "",
          "type": "uint256"
        }
      ],
      "stateMutability": "pure",
      "type": "function"
    },
    {
      "inputs": [
        {
          "internalType": "address",
          "name": "sharesSubject",
          "type": "address"
        },
        {
          "internalType": "uint256",
          "name": "amount",
          "type": "uint256"
        }
      ],
      "name": "getSellPrice",
      "outputs": [
        {
          "internalType": "uint256",
          "name": "",
          "type": "uint256"
        }
      ],
      "stateMutability": "view",
      "type": "function"
    },
    {
      "inputs": [
        {
          "internalType": "address",
          "name": "sharesSubject",
          "type": "address"
        },
        {
          "internalType": "uint256",
          "name": "amount",
          "type": "uint256"
        }
      ],
      "name": "getSellPriceAfterFee",
      "outputs": [
        {
          "internalType": "uint256",
          "name": "",
          "type": "uint256"
        }
      ],
      "stateMutability": "view",
      "type": "function"
    },
    {
      "inputs": [
        {
          "internalType": "address",
          "name": "",
          "type": "address"
        },
        {
          "internalType": "address",
          "name": "",
          "type": "address"
        }
      ],
      "name": "keysBalance",
      "outputs": [
        {
          "internalType": "uint256",
          "name": "",
          "type": "uint256"
        }
      ],
      "stateMutability": "view",
      "type": "function"
    },
    {
      "inputs": [
        {
          "internalType": "address",
          "name": "",
          "type": "address"
        }
      ],
      "name": "keysSupply",
      "outputs": [
        {
          "internalType": "uint256",
          "name": "",
          "type": "uint256"
        }
      ],
      "stateMutability": "view",
      "type": "function"
    },
    {
      "inputs": [
        {
          "internalType": "uint256",
          "name": "",
          "type": "uint256"
        }
      ],
      "name": "listOfAllCollections",
      "outputs": [
        {
          "internalType": "contract MusicCollection",
          "name": "",
          "type": "address"
        }
      ],
      "stateMutability": "view",
      "type": "function"
    },
    {
      "inputs": [],
      "name": "numberContracts",
      "outputs": [
        {
          "internalType": "uint256",
          "name": "",
          "type": "uint256"
        }
      ],
      "stateMutability": "view",
      "type": "function"
    },
    {
      "inputs": [],
      "name": "owner",
      "outputs": [
        {
          "internalType": "address",
          "name": "",
          "type": "address"
        }
      ],
      "stateMutability": "view",
      "type": "function"
    },
    {
      "inputs": [],
      "name": "protocolFeeDestination",
      "outputs": [
        {
          "internalType": "address",
          "name": "",
          "type": "address"
        }
      ],
      "stateMutability": "view",
      "type": "function"
    },
    {
      "inputs": [],
      "name": "protocolFeePercent",
      "outputs": [
        {
          "internalType": "uint256",
          "name": "",
          "type": "uint256"
        }
      ],
      "stateMutability": "view",
      "type": "function"
    },
    {
      "inputs": [],
      "name": "renounceOwnership",
      "outputs": [],
      "stateMutability": "nonpayable",
      "type": "function"
    },
    {
      "inputs": [
        {
          "internalType": "address",
          "name": "sharesSubject",
          "type": "address"
        },
        {
          "internalType": "uint256",
          "name": "amount",
          "type": "uint256"
        }
      ],
      "name": "sellShares",
      "outputs": [],
      "stateMutability": "payable",
      "type": "function"
    },
    {
      "inputs": [
        {
          "internalType": "address",
          "name": "_feeDestination",
          "type": "address"
        }
      ],
      "name": "setFeeDestination",
      "outputs": [],
      "stateMutability": "nonpayable",
      "type": "function"
    },
    {
      "inputs": [
        {
          "internalType": "uint256",
          "name": "_feePercent",
          "type": "uint256"
        }
      ],
      "name": "setProtocolFeePercent",
      "outputs": [],
      "stateMutability": "nonpayable",
      "type": "function"
    },
    {
      "inputs": [
        {
          "internalType": "uint256",
          "name": "_feePercent",
          "type": "uint256"
        }
      ],
      "name": "setSubjectFeePercent",
      "outputs": [],
      "stateMutability": "nonpayable",
      "type": "function"
    },
    {
      "inputs": [],
      "name": "subjectFeePercent",
      "outputs": [
        {
          "internalType": "uint256",
          "name": "",
          "type": "uint256"
        }
      ],
      "stateMutability": "view",
      "type": "function"
    },
    {
      "inputs": [
        {
          "internalType": "address",
          "name": "newOwner",
          "type": "address"
        }
      ],
      "name": "transferOwnership",
      "outputs": [],
      "stateMutability": "nonpayable",
      "type": "function"
    }
  ],
  "bytecode": "0x60806040523480156200001157600080fd5b50604051620061b9380380620061b9833981810160405281019062000037919062000235565b33600073ffffffffffffffffffffffffffffffffffffffff168173ffffffffffffffffffffffffffffffffffffffff1603620000ad5760006040517f1e4fbdf7000000000000000000000000000000000000000000000000000000008152600401620000a4919062000278565b60405180910390fd5b620000be816200010760201b60201c565b5080600860006101000a81548173ffffffffffffffffffffffffffffffffffffffff021916908373ffffffffffffffffffffffffffffffffffffffff1602179055505062000295565b60008060009054906101000a900473ffffffffffffffffffffffffffffffffffffffff169050816000806101000a81548173ffffffffffffffffffffffffffffffffffffffff021916908373ffffffffffffffffffffffffffffffffffffffff1602179055508173ffffffffffffffffffffffffffffffffffffffff168173ffffffffffffffffffffffffffffffffffffffff167f8be0079c531659141344cd1fd0a4f28419497f9722a3daafe3b4186f6b6457e060405160405180910390a35050565b600080fd5b600073ffffffffffffffffffffffffffffffffffffffff82169050919050565b6000620001fd82620001d0565b9050919050565b6200020f81620001f0565b81146200021b57600080fd5b50565b6000815190506200022f8162000204565b92915050565b6000602082840312156200024e576200024d620001cb565b5b60006200025e848285016200021e565b91505092915050565b6200027281620001f0565b82525050565b60006020820190506200028f600083018462000267565b92915050565b615f1480620002a56000396000f3fe608060405260043610620001525760003560e01c80639ae7178111620000bb578063d6e6eb9f1162000079578063d6e6eb9f1462000491578063d8fe213c14620004c1578063e575ab9614620004f1578063f2fde38b1462000535578063fbe532341462000563578063fc255d6514620005915762000152565b80639ae7178114620003a3578063a498342114620003e7578063a824b5101462000415578063b51d05341462000443578063b671da3d14620004635762000152565b80634ce7957c11620001155780634ce7957c14620002975780635a8a764e14620002c75780635cf4ee9114620002f55780636945b1231462000339578063715018a614620003595780638da5cb5b14620003735762000152565b80630f026f6d14620001575780632267a89c146200019b57806324dc441d14620001df57806342047a4f146200020f5780634635256e1462000253575b600080fd5b3480156200016457600080fd5b506200018360048036038101906200017d919062001cfb565b620005d5565b60405162000192919062001d53565b60405180910390f35b348015620001a857600080fd5b50620001c76004803603810190620001c1919062001cfb565b6200065e565b604051620001d6919062001d53565b60405180910390f35b348015620001ec57600080fd5b50620001f7620006e7565b60405162000206919062001d53565b60405180910390f35b3480156200021c57600080fd5b506200023b600480360381019062000235919062001d70565b620006ed565b6040516200024a919062001e0d565b60405180910390f35b3480156200026057600080fd5b506200027f600480360381019062000279919062001cfb565b6200072d565b6040516200028e919062001d53565b60405180910390f35b348015620002a457600080fd5b50620002af62000782565b604051620002be919062001e3b565b60405180910390f35b348015620002d457600080fd5b50620002f36004803603810190620002ed919062001d70565b620007a8565b005b3480156200030257600080fd5b506200032160048036038101906200031b919062001e58565b620007bc565b60405162000330919062001d53565b60405180910390f35b62000357600480360381019062000351919062001cfb565b6200091f565b005b3480156200036657600080fd5b506200037162000dab565b005b3480156200038057600080fd5b506200038b62000dc3565b6040516200039a919062001e3b565b60405180910390f35b348015620003b057600080fd5b50620003cf6004803603810190620003c9919062001cfb565b62000dec565b604051620003de919062001d53565b60405180910390f35b348015620003f457600080fd5b506200041360048036038101906200040d919062001d70565b62000e4e565b005b3480156200042257600080fd5b506200044160048036038101906200043b9190620020b5565b62000e62565b005b6200046160048036038101906200045b919062001cfb565b620011d4565b005b3480156200047057600080fd5b506200048f600480360381019062000489919062002184565b6200172c565b005b3480156200049e57600080fd5b50620004a9620019b9565b604051620004b8919062001d53565b60405180910390f35b348015620004ce57600080fd5b50620004d9620019bf565b604051620004e8919062001d53565b60405180910390f35b348015620004fe57600080fd5b506200051d600480360381019062000517919062002253565b620019c5565b6040516200052c919062001d53565b60405180910390f35b3480156200054257600080fd5b506200056160048036038101906200055b919062002253565b620019dd565b005b3480156200057057600080fd5b506200058f600480360381019062000589919062002253565b62001a6a565b005b3480156200059e57600080fd5b50620005bd6004803603810190620005b7919062002285565b62001ab8565b604051620005cc919062001d53565b60405180910390f35b600080620005e484846200072d565b90506000670de0b6b3a764000060025483620006019190620022fb565b6200060d919062002375565b90506000670de0b6b3a7640000600354846200062a9190620022fb565b62000636919062002375565b9050808284620006479190620023ad565b620006539190620023ad565b935050505092915050565b6000806200066d848462000dec565b90506000670de0b6b3a7640000600254836200068a9190620022fb565b62000696919062002375565b90506000670de0b6b3a764000060035484620006b39190620022fb565b620006bf919062002375565b9050808284620006d09190620023e8565b620006dc9190620023e8565b935050505092915050565b60035481565b60078181548110620006fe57600080fd5b906000526020600020016000915054906101000a900473ffffffffffffffffffffffffffffffffffffffff1681565b60006200077a600660008573ffffffffffffffffffffffffffffffffffffffff1673ffffffffffffffffffffffffffffffffffffffff1681526020019081526020016000205483620007bc565b905092915050565b600160009054906101000a900473ffffffffffffffffffffffffffffffffffffffff1681565b620007b262001add565b8060038190555050565b600080600084146200082e57600660018086620007da9190620023e8565b6002620007e89190620022fb565b620007f49190620023ad565b85600187620008049190620023e8565b620008109190620022fb565b6200081c9190620022fb565b62000828919062002375565b62000831565b60005b905060008085148015620008455750600184145b620008d85760066001856001886200085e9190620023e8565b6200086a9190620023ad565b6002620008789190620022fb565b620008849190620023ad565b8587620008929190620023ad565b86600189620008a29190620023e8565b620008ae9190620023ad565b620008ba9190620022fb565b620008c69190620022fb565b620008d2919062002375565b620008db565b60005b905060008282620008ed9190620023e8565b9050613e80670de0b6b3a764000082620009089190620022fb565b62000914919062002375565b935050505092915050565b6000600660008473ffffffffffffffffffffffffffffffffffffffff1673ffffffffffffffffffffffffffffffffffffffff16815260200190815260200160002054905060008111806200099e57503373ffffffffffffffffffffffffffffffffffffffff168373ffffffffffffffffffffffffffffffffffffffff16145b620009e0576040517f08c379a0000000000000000000000000000000000000000000000000000000008152600401620009d790620024aa565b60405180910390fd5b6000620009ee8284620007bc565b90506000670de0b6b3a76400006002548362000a0b9190620022fb565b62000a17919062002375565b90506000670de0b6b3a76400006003548462000a349190620022fb565b62000a40919062002375565b905080828462000a519190620023ad565b62000a5d9190620023ad565b34101562000aa2576040517f08c379a000000000000000000000000000000000000000000000000000000000815260040162000a99906200251c565b60405180910390fd5b84600560008873ffffffffffffffffffffffffffffffffffffffff1673ffffffffffffffffffffffffffffffffffffffff16815260200190815260200160002060003373ffffffffffffffffffffffffffffffffffffffff1673ffffffffffffffffffffffffffffffffffffffff1681526020019081526020016000205462000b2c9190620023ad565b600560008873ffffffffffffffffffffffffffffffffffffffff1673ffffffffffffffffffffffffffffffffffffffff16815260200190815260200160002060003373ffffffffffffffffffffffffffffffffffffffff1673ffffffffffffffffffffffffffffffffffffffff16815260200190815260200160002081905550848462000bba9190620023ad565b600660008873ffffffffffffffffffffffffffffffffffffffff1673ffffffffffffffffffffffffffffffffffffffff168152602001908152602001600020819055507f2c76e7a47fd53e2854856ac3f0a5f3ee40d15cfaa82266357ea9779c486ab9c333876001888787878c8c62000c349190620023ad565b60405162000c4a9897969594939291906200255b565b60405180910390a16000600160009054906101000a900473ffffffffffffffffffffffffffffffffffffffff1673ffffffffffffffffffffffffffffffffffffffff168360405162000c9c906200261e565b60006040518083038185875af1925050503d806000811462000cdb576040519150601f19603f3d011682016040523d82523d6000602084013e62000ce0565b606091505b5050905060008773ffffffffffffffffffffffffffffffffffffffff168360405162000d0c906200261e565b60006040518083038185875af1925050503d806000811462000d4b576040519150601f19603f3d011682016040523d82523d6000602084013e62000d50565b606091505b5050905081801562000d5f5750805b62000da1576040517f08c379a000000000000000000000000000000000000000000000000000000000815260040162000d989062002685565b60405180910390fd5b5050505050505050565b62000db562001add565b62000dc1600062001b6d565b565b60008060009054906101000a900473ffffffffffffffffffffffffffffffffffffffff16905090565b600062000e4682600660008673ffffffffffffffffffffffffffffffffffffffff1673ffffffffffffffffffffffffffffffffffffffff1681526020019081526020016000205462000e3f9190620023e8565b83620007bc565b905092915050565b62000e5862001add565b8060028190555050565b600860009054906101000a900473ffffffffffffffffffffffffffffffffffffffff1673ffffffffffffffffffffffffffffffffffffffff16632dd34f0f8484846040518463ffffffff1660e01b815260040162000ec3939291906200277c565b602060405180830381865afa15801562000ee1573d6000803e3d6000fd5b505050506040513d601f19601f8201168201806040525081019062000f079190620027f8565b62000f49576040517f08c379a000000000000000000000000000000000000000000000000000000000815260040162000f40906200287a565b60405180910390fd5b6000600560003373ffffffffffffffffffffffffffffffffffffffff1673ffffffffffffffffffffffffffffffffffffffff16815260200190815260200160002060008573ffffffffffffffffffffffffffffffffffffffff1673ffffffffffffffffffffffffffffffffffffffff16815260200190815260200160002054116200100b576040517f08c379a00000000000000000000000000000000000000000000000000000000081526004016200100290620028ec565b60405180910390fd5b6000333086856040516200101f9062001c39565b6200102e949392919062002935565b604051809103906000f0801580156200104b573d6000803e3d6000fd5b5090506007819080600181540180825580915050600190039060005260206000200160009091909190916101000a81548173ffffffffffffffffffffffffffffffffffffffff021916908373ffffffffffffffffffffffffffffffffffffffff160217905550600760045481548110620010ca57620010c9620029a5565b5b9060005260206000200160009054906101000a900473ffffffffffffffffffffffffffffffffffffffff1673ffffffffffffffffffffffffffffffffffffffff1663fd5dbe14856040518263ffffffff1660e01b81526004016200112f919062001e3b565b600060405180830381600087803b1580156200114a57600080fd5b505af11580156200115f573d6000803e3d6000fd5b50505050600460008154809291906200117890620029d4565b91905055503373ffffffffffffffffffffffffffffffffffffffff167ff0e2cb406057efcbb462defb5274795cb369635ce33b4761ad92f2e18c01567682604051620011c5919062001e3b565b60405180910390a25050505050565b6000600660008473ffffffffffffffffffffffffffffffffffffffff1673ffffffffffffffffffffffffffffffffffffffff1681526020019081526020016000205490508181116200125d576040517f08c379a0000000000000000000000000000000000000000000000000000000008152600401620012549062002a71565b60405180910390fd5b6000620012788383620012719190620023e8565b84620007bc565b90506000670de0b6b3a764000060025483620012959190620022fb565b620012a1919062002375565b90506000670de0b6b3a764000060035484620012be9190620022fb565b620012ca919062002375565b905084600560008873ffffffffffffffffffffffffffffffffffffffff1673ffffffffffffffffffffffffffffffffffffffff16815260200190815260200160002060003373ffffffffffffffffffffffffffffffffffffffff1673ffffffffffffffffffffffffffffffffffffffff1681526020019081526020016000205410156200138e576040517f08c379a0000000000000000000000000000000000000000000000000000000008152600401620013859062002ae3565b60405180910390fd5b84600560008873ffffffffffffffffffffffffffffffffffffffff1673ffffffffffffffffffffffffffffffffffffffff16815260200190815260200160002060003373ffffffffffffffffffffffffffffffffffffffff1673ffffffffffffffffffffffffffffffffffffffff16815260200190815260200160002054620014189190620023e8565b600560008873ffffffffffffffffffffffffffffffffffffffff1673ffffffffffffffffffffffffffffffffffffffff16815260200190815260200160002060003373ffffffffffffffffffffffffffffffffffffffff1673ffffffffffffffffffffffffffffffffffffffff168152602001908152602001600020819055508484620014a69190620023e8565b600660008873ffffffffffffffffffffffffffffffffffffffff1673ffffffffffffffffffffffffffffffffffffffff168152602001908152602001600020819055507f2c76e7a47fd53e2854856ac3f0a5f3ee40d15cfaa82266357ea9779c486ab9c333876000888787878c8c620015209190620023e8565b604051620015369897969594939291906200255b565b60405180910390a160003373ffffffffffffffffffffffffffffffffffffffff16828486620015669190620023e8565b620015729190620023e8565b60405162001580906200261e565b60006040518083038185875af1925050503d8060008114620015bf576040519150601f19603f3d011682016040523d82523d6000602084013e620015c4565b606091505b505090506000600160009054906101000a900473ffffffffffffffffffffffffffffffffffffffff1673ffffffffffffffffffffffffffffffffffffffff168460405162001612906200261e565b60006040518083038185875af1925050503d806000811462001651576040519150601f19603f3d011682016040523d82523d6000602084013e62001656565b606091505b5050905060008873ffffffffffffffffffffffffffffffffffffffff168460405162001682906200261e565b60006040518083038185875af1925050503d8060008114620016c1576040519150601f19603f3d011682016040523d82523d6000602084013e620016c6565b606091505b50509050828015620016d55750815b8015620016df5750805b62001721576040517f08c379a0000000000000000000000000000000000000000000000000000000008152600401620017189062002685565b60405180910390fd5b505050505050505050565b6000600560003373ffffffffffffffffffffffffffffffffffffffff1673ffffffffffffffffffffffffffffffffffffffff16815260200190815260200160002060008573ffffffffffffffffffffffffffffffffffffffff1673ffffffffffffffffffffffffffffffffffffffff1681526020019081526020016000205411620017ee576040517f08c379a0000000000000000000000000000000000000000000000000000000008152600401620017e590620028ec565b60405180910390fd5b60003330868585604051620018039062001c39565b6200181395949392919062002b05565b604051809103906000f08015801562001830573d6000803e3d6000fd5b5090506007819080600181540180825580915050600190039060005260206000200160009091909190916101000a81548173ffffffffffffffffffffffffffffffffffffffff021916908373ffffffffffffffffffffffffffffffffffffffff160217905550600760045481548110620018af57620018ae620029a5565b5b9060005260206000200160009054906101000a900473ffffffffffffffffffffffffffffffffffffffff1673ffffffffffffffffffffffffffffffffffffffff1663837c1e18856040518263ffffffff1660e01b815260040162001914919062001e3b565b600060405180830381600087803b1580156200192f57600080fd5b505af115801562001944573d6000803e3d6000fd5b50505050600460008154809291906200195d90620029d4565b91905055503373ffffffffffffffffffffffffffffffffffffffff167ff0e2cb406057efcbb462defb5274795cb369635ce33b4761ad92f2e18c01567682604051620019aa919062001e3b565b60405180910390a25050505050565b60025481565b60045481565b60066020528060005260406000206000915090505481565b620019e762001add565b600073ffffffffffffffffffffffffffffffffffffffff168173ffffffffffffffffffffffffffffffffffffffff160362001a5c5760006040517f1e4fbdf700000000000000000000000000000000000000000000000000000000815260040162001a53919062001e3b565b60405180910390fd5b62001a678162001b6d565b50565b62001a7462001add565b80600160006101000a81548173ffffffffffffffffffffffffffffffffffffffff021916908373ffffffffffffffffffffffffffffffffffffffff16021790555050565b6005602052816000526040600020602052806000526040600020600091509150505481565b62001ae762001c31565b73ffffffffffffffffffffffffffffffffffffffff1662001b0762000dc3565b73ffffffffffffffffffffffffffffffffffffffff161462001b6b5762001b2d62001c31565b6040517f118cdaa700000000000000000000000000000000000000000000000000000000815260040162001b62919062001e3b565b60405180910390fd5b565b60008060009054906101000a900473ffffffffffffffffffffffffffffffffffffffff169050816000806101000a81548173ffffffffffffffffffffffffffffffffffffffff021916908373ffffffffffffffffffffffffffffffffffffffff1602179055508173ffffffffffffffffffffffffffffffffffffffff168173ffffffffffffffffffffffffffffffffffffffff167f8be0079c531659141344cd1fd0a4f28419497f9722a3daafe3b4186f6b6457e060405160405180910390a35050565b600033905090565b6133678062002b7883390190565b6000604051905090565b600080fd5b600080fd5b600073ffffffffffffffffffffffffffffffffffffffff82169050919050565b600062001c888262001c5b565b9050919050565b62001c9a8162001c7b565b811462001ca657600080fd5b50565b60008135905062001cba8162001c8f565b92915050565b6000819050919050565b62001cd58162001cc0565b811462001ce157600080fd5b50565b60008135905062001cf58162001cca565b92915050565b6000806040838503121562001d155762001d1462001c51565b5b600062001d258582860162001ca9565b925050602062001d388582860162001ce4565b9150509250929050565b62001d4d8162001cc0565b82525050565b600060208201905062001d6a600083018462001d42565b92915050565b60006020828403121562001d895762001d8862001c51565b5b600062001d998482850162001ce4565b91505092915050565b6000819050919050565b600062001dcd62001dc762001dc18462001c5b565b62001da2565b62001c5b565b9050919050565b600062001de18262001dac565b9050919050565b600062001df58262001dd4565b9050919050565b62001e078162001de8565b82525050565b600060208201905062001e24600083018462001dfc565b92915050565b62001e358162001c7b565b82525050565b600060208201905062001e52600083018462001e2a565b92915050565b6000806040838503121562001e725762001e7162001c51565b5b600062001e828582860162001ce4565b925050602062001e958582860162001ce4565b9150509250929050565b600080fd5b600080fd5b6000601f19601f8301169050919050565b7f4e487b7100000000000000000000000000000000000000000000000000000000600052604160045260246000fd5b62001ef48262001ea9565b810181811067ffffffffffffffff8211171562001f165762001f1562001eba565b5b80604052505050565b600062001f2b62001c47565b905062001f39828262001ee9565b919050565b600067ffffffffffffffff82111562001f5c5762001f5b62001eba565b5b62001f678262001ea9565b9050602081019050919050565b82818337600083830152505050565b600062001f9a62001f948462001f3e565b62001f1f565b90508281526020810184848401111562001fb95762001fb862001ea4565b5b62001fc684828562001f74565b509392505050565b600082601f83011262001fe65762001fe562001e9f565b5b813562001ff884826020860162001f83565b91505092915050565b600067ffffffffffffffff8211156200201f576200201e62001eba565b5b6200202a8262001ea9565b9050602081019050919050565b60006200204e620020488462002001565b62001f1f565b9050828152602081018484840111156200206d576200206c62001ea4565b5b6200207a84828562001f74565b509392505050565b600082601f8301126200209a576200209962001e9f565b5b8135620020ac84826020860162002037565b91505092915050565b60008060008060808587031215620020d257620020d162001c51565b5b600085013567ffffffffffffffff811115620020f357620020f262001c56565b5b620021018782880162001fce565b9450506020620021148782880162001ca9565b935050604085013567ffffffffffffffff81111562002138576200213762001c56565b5b620021468782880162001fce565b925050606085013567ffffffffffffffff8111156200216a576200216962001c56565b5b620021788782880162002082565b91505092959194509250565b60008060008060808587031215620021a157620021a062001c51565b5b600085013567ffffffffffffffff811115620021c257620021c162001c56565b5b620021d08782880162001fce565b9450506020620021e38782880162001ca9565b935050604085013567ffffffffffffffff81111562002207576200220662001c56565b5b620022158782880162001fce565b925050606085013567ffffffffffffffff81111562002239576200223862001c56565b5b620022478782880162001fce565b91505092959194509250565b6000602082840312156200226c576200226b62001c51565b5b60006200227c8482850162001ca9565b91505092915050565b600080604083850312156200229f576200229e62001c51565b5b6000620022af8582860162001ca9565b9250506020620022c28582860162001ca9565b9150509250929050565b7f4e487b7100000000000000000000000000000000000000000000000000000000600052601160045260246000fd5b6000620023088262001cc0565b9150620023158362001cc0565b9250828202620023258162001cc0565b915082820484148315176200233f576200233e620022cc565b5b5092915050565b7f4e487b7100000000000000000000000000000000000000000000000000000000600052601260045260246000fd5b6000620023828262001cc0565b91506200238f8362001cc0565b925082620023a257620023a162002346565b5b828204905092915050565b6000620023ba8262001cc0565b9150620023c78362001cc0565b9250828201905080821115620023e257620023e1620022cc565b5b92915050565b6000620023f58262001cc0565b9150620024028362001cc0565b92508282039050818111156200241d576200241c620022cc565b5b92915050565b600082825260208201905092915050565b7f4f6e6c79207468652073686172657327207375626a6563742063616e2062757960008201527f2074686520666972737420736861726500000000000000000000000000000000602082015250565b60006200249260308362002423565b91506200249f8262002434565b604082019050919050565b60006020820190508181036000830152620024c58162002483565b9050919050565b7f496e73756666696369656e74207061796d656e74000000000000000000000000600082015250565b60006200250460148362002423565b91506200251182620024cc565b602082019050919050565b600060208201905081810360008301526200253781620024f5565b9050919050565b60008115159050919050565b62002555816200253e565b82525050565b60006101008201905062002573600083018b62001e2a565b62002582602083018a62001e2a565b6200259160408301896200254a565b620025a0606083018862001d42565b620025af608083018762001d42565b620025be60a083018662001d42565b620025cd60c083018562001d42565b620025dc60e083018462001d42565b9998505050505050505050565b600081905092915050565b50565b600062002606600083620025e9565b91506200261382620025f4565b600082019050919050565b60006200262b82620025f7565b9150819050919050565b7f556e61626c6520746f2073656e642066756e6473000000000000000000000000600082015250565b60006200266d60148362002423565b91506200267a8262002635565b602082019050919050565b60006020820190508181036000830152620026a0816200265e565b9050919050565b600081519050919050565b60005b83811015620026d2578082015181840152602081019050620026b5565b60008484015250505050565b6000620026eb82620026a7565b620026f7818562002423565b935062002709818560208601620026b2565b620027148162001ea9565b840191505092915050565b600081519050919050565b600082825260208201905092915050565b600062002748826200271f565b6200275481856200272a565b935062002766818560208601620026b2565b620027718162001ea9565b840191505092915050565b600060608201905062002793600083018662001e2a565b8181036020830152620027a78185620026de565b90508181036040830152620027bd81846200273b565b9050949350505050565b620027d2816200253e565b8114620027de57600080fd5b50565b600081519050620027f281620027c7565b92915050565b60006020828403121562002811576200281062001c51565b5b60006200282184828501620027e1565b91505092915050565b7f566572696669636174696f6e20696e636f6d706c657465210000000000000000600082015250565b60006200286260188362002423565b91506200286f826200282a565b602082019050919050565b60006020820190508181036000830152620028958162002853565b9050919050565b7f53656e64657220646f65736e7420686f6c6420796f7572206b65790000000000600082015250565b6000620028d4601b8362002423565b9150620028e1826200289c565b602082019050919050565b600060208201905081810360008301526200290781620028c5565b9050919050565b60006200291d60008362002423565b91506200292a82620025f4565b600082019050919050565b600060a0820190506200294c600083018762001e2a565b6200295b602083018662001e2a565b81810360408301526200296f8185620026de565b90508181036060830152620029858184620026de565b905081810360808301526200299a816200290e565b905095945050505050565b7f4e487b7100000000000000000000000000000000000000000000000000000000600052603260045260246000fd5b6000620029e18262001cc0565b91507fffffffffffffffffffffffffffffffffffffffffffffffffffffffffffffffff820362002a165762002a15620022cc565b5b600182019050919050565b7f43616e6e6f742073656c6c20746865206c617374207368617265000000000000600082015250565b600062002a59601a8362002423565b915062002a668262002a21565b602082019050919050565b6000602082019050818103600083015262002a8c8162002a4a565b9050919050565b7f496e73756666696369656e742073686172657300000000000000000000000000600082015250565b600062002acb60138362002423565b915062002ad88262002a93565b602082019050919050565b6000602082019050818103600083015262002afe8162002abc565b9050919050565b600060a08201905062002b1c600083018862001e2a565b62002b2b602083018762001e2a565b818103604083015262002b3f8186620026de565b9050818103606083015262002b558185620026de565b9050818103608083015262002b6b8184620026de565b9050969550505050505056fe60806040523480156200001157600080fd5b506040516200336738038062003367833981810160405281019062000037919062000384565b6040518060400160405280600f81526020017f4d75736963436f6c6c656374696f6e00000000000000000000000000000000008152506040518060400160405280600281526020017f4d430000000000000000000000000000000000000000000000000000000000008152508160009081620000b49190620006b4565b508060019081620000c69190620006b4565b50505084600b60006101000a81548173ffffffffffffffffffffffffffffffffffffffff021916908373ffffffffffffffffffffffffffffffffffffffff16021790555083600c60006101000a81548173ffffffffffffffffffffffffffffffffffffffff021916908373ffffffffffffffffffffffffffffffffffffffff16021790555082600890816200015c9190620006b4565b5081600790816200016e9190620006b4565b508060099081620001809190620006b4565b5050505050506200079b565b6000604051905090565b600080fd5b600080fd5b600073ffffffffffffffffffffffffffffffffffffffff82169050919050565b6000620001cd82620001a0565b9050919050565b620001df81620001c0565b8114620001eb57600080fd5b50565b600081519050620001ff81620001d4565b92915050565b600080fd5b600080fd5b6000601f19601f8301169050919050565b7f4e487b7100000000000000000000000000000000000000000000000000000000600052604160045260246000fd5b6200025a826200020f565b810181811067ffffffffffffffff821117156200027c576200027b62000220565b5b80604052505050565b6000620002916200018c565b90506200029f82826200024f565b919050565b600067ffffffffffffffff821115620002c257620002c162000220565b5b620002cd826200020f565b9050602081019050919050565b60005b83811015620002fa578082015181840152602081019050620002dd565b60008484015250505050565b60006200031d6200031784620002a4565b62000285565b9050828152602081018484840111156200033c576200033b6200020a565b5b62000349848285620002da565b509392505050565b600082601f83011262000369576200036862000205565b5b81516200037b84826020860162000306565b91505092915050565b600080600080600060a08688031215620003a357620003a262000196565b5b6000620003b388828901620001ee565b9550506020620003c688828901620001ee565b945050604086015167ffffffffffffffff811115620003ea57620003e96200019b565b5b620003f88882890162000351565b935050606086015167ffffffffffffffff8111156200041c576200041b6200019b565b5b6200042a8882890162000351565b925050608086015167ffffffffffffffff8111156200044e576200044d6200019b565b5b6200045c8882890162000351565b9150509295509295909350565b600081519050919050565b7f4e487b7100000000000000000000000000000000000000000000000000000000600052602260045260246000fd5b60006002820490506001821680620004bc57607f821691505b602082108103620004d257620004d162000474565b5b50919050565b60008190508160005260206000209050919050565b60006020601f8301049050919050565b600082821b905092915050565b6000600883026200053c7fffffffffffffffffffffffffffffffffffffffffffffffffffffffffffffffff82620004fd565b620005488683620004fd565b95508019841693508086168417925050509392505050565b6000819050919050565b6000819050919050565b6000620005956200058f620005898462000560565b6200056a565b62000560565b9050919050565b6000819050919050565b620005b18362000574565b620005c9620005c0826200059c565b8484546200050a565b825550505050565b600090565b620005e0620005d1565b620005ed818484620005a6565b505050565b5b81811015620006155762000609600082620005d6565b600181019050620005f3565b5050565b601f82111562000664576200062e81620004d8565b6200063984620004ed565b8101602085101562000649578190505b620006616200065885620004ed565b830182620005f2565b50505b505050565b600082821c905092915050565b6000620006896000198460080262000669565b1980831691505092915050565b6000620006a4838362000676565b9150826002028217905092915050565b620006bf8262000469565b67ffffffffffffffff811115620006db57620006da62000220565b5b620006e78254620004a3565b620006f482828562000619565b600060209050601f8311600181146200072c576000841562000717578287015190505b62000723858262000696565b86555062000793565b601f1984166200073c86620004d8565b60005b8281101562000766578489015182556001820191506020850194506020810190506200073f565b8683101562000786578489015162000782601f89168262000676565b8355505b6001600288020188555050505b505050505050565b612bbc80620007ab6000396000f3fe608060405234801561001057600080fd5b50600436106101425760003560e01c806370a08231116100b8578063a22cb4651161007c578063a22cb46514610377578063b88d4fde14610393578063c87b56dd146103af578063ca8fa5bd146103df578063e985e9c5146103fd578063fd5dbe141461042d57610142565b806370a08231146102bf578063837c1e18146102ef57806394b967211461030b57806395d89b411461033b5780639abc83201461035957610142565b806318160ddd1161010a57806318160ddd146101ff57806323b872dd1461021d57806342842e0e1461023957806343bc1612146102555780636352211e146102735780636a627842146102a357610142565b806301ffc9a71461014757806306fdde0314610177578063081812fc14610195578063089a15e4146101c5578063095ea7b3146101e3575b600080fd5b610161600480360381019061015c9190611ef0565b610449565b60405161016e9190611f38565b60405180910390f35b61017f6104aa565b60405161018c9190611fe3565b60405180910390f35b6101af60048036038101906101aa919061203b565b61053c565b6040516101bc91906120a9565b60405180910390f35b6101cd610558565b6040516101da9190611fe3565b60405180910390f35b6101fd60048036038101906101f891906120f0565b6105e6565b005b6102076105fc565b604051610214919061213f565b60405180910390f35b6102376004803603810190610232919061215a565b610602565b005b610253600480360381019061024e919061215a565b610704565b005b61025d610724565b60405161026a91906120a9565b60405180910390f35b61028d6004803603810190610288919061203b565b61074a565b60405161029a91906120a9565b60405180910390f35b6102bd60048036038101906102b891906121ad565b61075c565b005b6102d960048036038101906102d491906121ad565b6108af565b6040516102e6919061213f565b60405180910390f35b610309600480360381019061030491906121ad565b610969565b005b610325600480360381019061032091906121ad565b610a6b565b604051610332919061213f565b60405180910390f35b610343610b12565b6040516103509190611fe3565b60405180910390f35b610361610ba4565b60405161036e9190611fe3565b60405180910390f35b610391600480360381019061038c9190612206565b610c32565b005b6103ad60048036038101906103a8919061237b565b610c48565b005b6103c960048036038101906103c4919061203b565b610c65565b6040516103d69190611fe3565b60405180910390f35b6103e7610d78565b6040516103f49190611fe3565b60405180910390f35b610417600480360381019061041291906123fe565b610e06565b6040516104249190611f38565b60405180910390f35b610447600480360381019061044291906121ad565b610e9a565b005b6000634906490660e01b7bffffffffffffffffffffffffffffffffffffffffffffffffffffffff1916827bffffffffffffffffffffffffffffffffffffffffffffffffffffffff191614806104a357506104a282610f9c565b5b9050919050565b6060600080546104b99061246d565b80601f01602080910402602001604051908101604052809291908181526020018280546104e59061246d565b80156105325780601f1061050757610100808354040283529160200191610532565b820191906000526020600020905b81548152906001019060200180831161051557829003601f168201915b5050505050905090565b60006105478261107e565b5061055182611106565b9050919050565b600780546105659061246d565b80601f01602080910402602001604051908101604052809291908181526020018280546105919061246d565b80156105de5780601f106105b3576101008083540402835291602001916105de565b820191906000526020600020905b8154815290600101906020018083116105c157829003601f168201915b505050505081565b6105f882826105f3611143565b61114b565b5050565b600a5481565b600073ffffffffffffffffffffffffffffffffffffffff168273ffffffffffffffffffffffffffffffffffffffff16036106745760006040517f64a0ae9200000000000000000000000000000000000000000000000000000000815260040161066b91906120a9565b60405180910390fd5b60006106888383610683611143565b61115d565b90508373ffffffffffffffffffffffffffffffffffffffff168173ffffffffffffffffffffffffffffffffffffffff16146106fe578382826040517f64283d7b0000000000000000000000000000000000000000000000000000000081526004016106f59392919061249e565b60405180910390fd5b50505050565b61071f83838360405180602001604052806000815250610c48565b505050565b600b60009054906101000a900473ffffffffffffffffffffffffffffffffffffffff1681565b60006107558261107e565b9050919050565b600061076782610a6b565b116107a7576040517f08c379a000000000000000000000000000000000000000000000000000000000815260040161079e90612547565b60405180910390fd5b60016107b2336108af565b106107f2576040517f08c379a00000000000000000000000000000000000000000000000000000000081526004016107e9906125d9565b60405180910390fd5b600a600081548092919061080590612628565b919050555061081633600a54611377565b6108ac600a54600880546108299061246d565b80601f01602080910402602001604051908101604052809291908181526020018280546108559061246d565b80156108a25780601f10610877576101008083540402835291602001916108a2565b820191906000526020600020905b81548152906001019060200180831161088557829003601f168201915b5050505050611470565b50565b60008073ffffffffffffffffffffffffffffffffffffffff168273ffffffffffffffffffffffffffffffffffffffff16036109225760006040517f89c62b6400000000000000000000000000000000000000000000000000000000815260040161091991906120a9565b60405180910390fd5b600360008373ffffffffffffffffffffffffffffffffffffffff1673ffffffffffffffffffffffffffffffffffffffff168152602001908152602001600020549050919050565b6000600a54146109ae576040517f08c379a00000000000000000000000000000000000000000000000000000000081526004016109a5906126e2565b60405180910390fd5b600a60008154809291906109c190612628565b91905055506109d281600a54611377565b610a68600a54600980546109e59061246d565b80601f0160208091040260200160405190810160405280929190818152602001828054610a119061246d565b8015610a5e5780601f10610a3357610100808354040283529160200191610a5e565b820191906000526020600020905b815481529060010190602001808311610a4157829003601f168201915b5050505050611470565b50565b6000600c60009054906101000a900473ffffffffffffffffffffffffffffffffffffffff1673ffffffffffffffffffffffffffffffffffffffff1663fc255d6583336040518363ffffffff1660e01b8152600401610aca929190612702565b602060405180830381865afa158015610ae7573d6000803e3d6000fd5b505050506040513d601f19601f82011682018060405250810190610b0b9190612740565b9050919050565b606060018054610b219061246d565b80601f0160208091040260200160405190810160405280929190818152602001828054610b4d9061246d565b8015610b9a5780601f10610b6f57610100808354040283529160200191610b9a565b820191906000526020600020905b815481529060010190602001808311610b7d57829003601f168201915b5050505050905090565b60088054610bb19061246d565b80601f0160208091040260200160405190810160405280929190818152602001828054610bdd9061246d565b8015610c2a5780601f10610bff57610100808354040283529160200191610c2a565b820191906000526020600020905b815481529060010190602001808311610c0d57829003601f168201915b505050505081565b610c44610c3d611143565b83836114cc565b5050565b610c53848484610602565b610c5f8484848461163b565b50505050565b6060610c708261107e565b506000600660008481526020019081526020016000208054610c919061246d565b80601f0160208091040260200160405190810160405280929190818152602001828054610cbd9061246d565b8015610d0a5780601f10610cdf57610100808354040283529160200191610d0a565b820191906000526020600020905b815481529060010190602001808311610ced57829003601f168201915b505050505090506000610d1b6117f2565b90506000815103610d30578192505050610d73565b600082511115610d65578082604051602001610d4d9291906127a9565b60405160208183030381529060405292505050610d73565b610d6e84611809565b925050505b919050565b60098054610d859061246d565b80601f0160208091040260200160405190810160405280929190818152602001828054610db19061246d565b8015610dfe5780601f10610dd357610100808354040283529160200191610dfe565b820191906000526020600020905b815481529060010190602001808311610de157829003601f168201915b505050505081565b6000600560008473ffffffffffffffffffffffffffffffffffffffff1673ffffffffffffffffffffffffffffffffffffffff16815260200190815260200160002060008373ffffffffffffffffffffffffffffffffffffffff1673ffffffffffffffffffffffffffffffffffffffff16815260200190815260200160002060009054906101000a900460ff16905092915050565b6000600a5414610edf576040517f08c379a0000000000000000000000000000000000000000000000000000000008152600401610ed6906126e2565b60405180910390fd5b600a6000815480929190610ef290612628565b9190505550610f0381600a54611377565b610f99600a5460088054610f169061246d565b80601f0160208091040260200160405190810160405280929190818152602001828054610f429061246d565b8015610f8f5780601f10610f6457610100808354040283529160200191610f8f565b820191906000526020600020905b815481529060010190602001808311610f7257829003601f168201915b5050505050611470565b50565b60007f80ac58cd000000000000000000000000000000000000000000000000000000007bffffffffffffffffffffffffffffffffffffffffffffffffffffffff1916827bffffffffffffffffffffffffffffffffffffffffffffffffffffffff1916148061106757507f5b5e139f000000000000000000000000000000000000000000000000000000007bffffffffffffffffffffffffffffffffffffffffffffffffffffffff1916827bffffffffffffffffffffffffffffffffffffffffffffffffffffffff1916145b80611077575061107682611872565b5b9050919050565b60008061108a836118dc565b9050600073ffffffffffffffffffffffffffffffffffffffff168173ffffffffffffffffffffffffffffffffffffffff16036110fd57826040517f7e2732890000000000000000000000000000000000000000000000000000000081526004016110f4919061213f565b60405180910390fd5b80915050919050565b60006004600083815260200190815260200160002060009054906101000a900473ffffffffffffffffffffffffffffffffffffffff169050919050565b600033905090565b6111588383836001611919565b505050565b600080611169846118dc565b9050600073ffffffffffffffffffffffffffffffffffffffff168373ffffffffffffffffffffffffffffffffffffffff16146111ab576111aa818486611ade565b5b600073ffffffffffffffffffffffffffffffffffffffff168173ffffffffffffffffffffffffffffffffffffffff161461123c576111ed600085600080611919565b6001600360008373ffffffffffffffffffffffffffffffffffffffff1673ffffffffffffffffffffffffffffffffffffffff168152602001908152602001600020600082825403925050819055505b600073ffffffffffffffffffffffffffffffffffffffff168573ffffffffffffffffffffffffffffffffffffffff16146112bf576001600360008773ffffffffffffffffffffffffffffffffffffffff1673ffffffffffffffffffffffffffffffffffffffff168152602001908152602001600020600082825401925050819055505b846002600086815260200190815260200160002060006101000a81548173ffffffffffffffffffffffffffffffffffffffff021916908373ffffffffffffffffffffffffffffffffffffffff160217905550838573ffffffffffffffffffffffffffffffffffffffff168273ffffffffffffffffffffffffffffffffffffffff167fddf252ad1be2c89b69c2b068fc378daa952ba7f163c4a11628f55a4df523b3ef60405160405180910390a4809150509392505050565b600073ffffffffffffffffffffffffffffffffffffffff168273ffffffffffffffffffffffffffffffffffffffff16036113e95760006040517f64a0ae920000000000000000000000000000000000000000000000000000000081526004016113e091906120a9565b60405180910390fd5b60006113f78383600061115d565b9050600073ffffffffffffffffffffffffffffffffffffffff168173ffffffffffffffffffffffffffffffffffffffff161461146b5760006040517f73c6ac6e00000000000000000000000000000000000000000000000000000000815260040161146291906120a9565b60405180910390fd5b505050565b806006600084815260200190815260200160002090816114909190612979565b507ff8e1a15aba9398e019f0b49df1a4fde98ee17ae345cb5f6b5e2c27f5033e8ce7826040516114c0919061213f565b60405180910390a15050565b600073ffffffffffffffffffffffffffffffffffffffff168273ffffffffffffffffffffffffffffffffffffffff160361153d57816040517f5b08ba1800000000000000000000000000000000000000000000000000000000815260040161153491906120a9565b60405180910390fd5b80600560008573ffffffffffffffffffffffffffffffffffffffff1673ffffffffffffffffffffffffffffffffffffffff16815260200190815260200160002060008473ffffffffffffffffffffffffffffffffffffffff1673ffffffffffffffffffffffffffffffffffffffff16815260200190815260200160002060006101000a81548160ff0219169083151502179055508173ffffffffffffffffffffffffffffffffffffffff168373ffffffffffffffffffffffffffffffffffffffff167f17307eab39ab6107e8899845ad3d59bd9653f200f220920489ca2b5937696c318360405161162e9190611f38565b60405180910390a3505050565b60008373ffffffffffffffffffffffffffffffffffffffff163b11156117ec578273ffffffffffffffffffffffffffffffffffffffff1663150b7a0261167f611143565b8685856040518563ffffffff1660e01b81526004016116a19493929190612aa0565b6020604051808303816000875af19250505080156116dd57506040513d601f19601f820116820180604052508101906116da9190612b01565b60015b611761573d806000811461170d576040519150601f19603f3d011682016040523d82523d6000602084013e611712565b606091505b50600081510361175957836040517f64a0ae9200000000000000000000000000000000000000000000000000000000815260040161175091906120a9565b60405180910390fd5b805181602001fd5b63150b7a0260e01b7bffffffffffffffffffffffffffffffffffffffffffffffffffffffff1916817bffffffffffffffffffffffffffffffffffffffffffffffffffffffff1916146117ea57836040517f64a0ae920000000000000000000000000000000000000000000000000000000081526004016117e191906120a9565b60405180910390fd5b505b50505050565b606060405180602001604052806000815250905090565b60606118148261107e565b50600061181f6117f2565b9050600081511161183f576040518060200160405280600081525061186a565b8061184984611ba2565b60405160200161185a9291906127a9565b6040516020818303038152906040525b915050919050565b60007f01ffc9a7000000000000000000000000000000000000000000000000000000007bffffffffffffffffffffffffffffffffffffffffffffffffffffffff1916827bffffffffffffffffffffffffffffffffffffffffffffffffffffffff1916149050919050565b60006002600083815260200190815260200160002060009054906101000a900473ffffffffffffffffffffffffffffffffffffffff169050919050565b80806119525750600073ffffffffffffffffffffffffffffffffffffffff168273ffffffffffffffffffffffffffffffffffffffff1614155b15611a865760006119628461107e565b9050600073ffffffffffffffffffffffffffffffffffffffff168373ffffffffffffffffffffffffffffffffffffffff16141580156119cd57508273ffffffffffffffffffffffffffffffffffffffff168173ffffffffffffffffffffffffffffffffffffffff1614155b80156119e057506119de8184610e06565b155b15611a2257826040517fa9fbf51f000000000000000000000000000000000000000000000000000000008152600401611a1991906120a9565b60405180910390fd5b8115611a8457838573ffffffffffffffffffffffffffffffffffffffff168273ffffffffffffffffffffffffffffffffffffffff167f8c5be1e5ebec7d5bd14f71427d1e84f3dd0314c0f7b2291e5b200ac8c7c3b92560405160405180910390a45b505b836004600085815260200190815260200160002060006101000a81548173ffffffffffffffffffffffffffffffffffffffff021916908373ffffffffffffffffffffffffffffffffffffffff16021790555050505050565b611ae9838383611c70565b611b9d57600073ffffffffffffffffffffffffffffffffffffffff168373ffffffffffffffffffffffffffffffffffffffff1603611b5e57806040517f7e273289000000000000000000000000000000000000000000000000000000008152600401611b55919061213f565b60405180910390fd5b81816040517f177e802f000000000000000000000000000000000000000000000000000000008152600401611b94929190612b2e565b60405180910390fd5b505050565b606060006001611bb184611d31565b01905060008167ffffffffffffffff811115611bd057611bcf612250565b5b6040519080825280601f01601f191660200182016040528015611c025781602001600182028036833780820191505090505b509050600082602001820190505b600115611c65578080600190039150507f3031323334353637383961626364656600000000000000000000000000000000600a86061a8153600a8581611c5957611c58612b57565b5b04945060008503611c10575b819350505050919050565b60008073ffffffffffffffffffffffffffffffffffffffff168373ffffffffffffffffffffffffffffffffffffffff1614158015611d2857508273ffffffffffffffffffffffffffffffffffffffff168473ffffffffffffffffffffffffffffffffffffffff161480611ce95750611ce88484610e06565b5b80611d2757508273ffffffffffffffffffffffffffffffffffffffff16611d0f83611106565b73ffffffffffffffffffffffffffffffffffffffff16145b5b90509392505050565b600080600090507a184f03e93ff9f4daa797ed6e38ed64bf6a1f0100000000000000008310611d8f577a184f03e93ff9f4daa797ed6e38ed64bf6a1f0100000000000000008381611d8557611d84612b57565b5b0492506040810190505b6d04ee2d6d415b85acef81000000008310611dcc576d04ee2d6d415b85acef81000000008381611dc257611dc1612b57565b5b0492506020810190505b662386f26fc100008310611dfb57662386f26fc100008381611df157611df0612b57565b5b0492506010810190505b6305f5e1008310611e24576305f5e1008381611e1a57611e19612b57565b5b0492506008810190505b6127108310611e49576127108381611e3f57611e3e612b57565b5b0492506004810190505b60648310611e6c5760648381611e6257611e61612b57565b5b0492506002810190505b600a8310611e7b576001810190505b80915050919050565b6000604051905090565b600080fd5b600080fd5b60007fffffffff0000000000000000000000000000000000000000000000000000000082169050919050565b611ecd81611e98565b8114611ed857600080fd5b50565b600081359050611eea81611ec4565b92915050565b600060208284031215611f0657611f05611e8e565b5b6000611f1484828501611edb565b91505092915050565b60008115159050919050565b611f3281611f1d565b82525050565b6000602082019050611f4d6000830184611f29565b92915050565b600081519050919050565b600082825260208201905092915050565b60005b83811015611f8d578082015181840152602081019050611f72565b60008484015250505050565b6000601f19601f8301169050919050565b6000611fb582611f53565b611fbf8185611f5e565b9350611fcf818560208601611f6f565b611fd881611f99565b840191505092915050565b60006020820190508181036000830152611ffd8184611faa565b905092915050565b6000819050919050565b61201881612005565b811461202357600080fd5b50565b6000813590506120358161200f565b92915050565b60006020828403121561205157612050611e8e565b5b600061205f84828501612026565b91505092915050565b600073ffffffffffffffffffffffffffffffffffffffff82169050919050565b600061209382612068565b9050919050565b6120a381612088565b82525050565b60006020820190506120be600083018461209a565b92915050565b6120cd81612088565b81146120d857600080fd5b50565b6000813590506120ea816120c4565b92915050565b6000806040838503121561210757612106611e8e565b5b6000612115858286016120db565b925050602061212685828601612026565b9150509250929050565b61213981612005565b82525050565b60006020820190506121546000830184612130565b92915050565b60008060006060848603121561217357612172611e8e565b5b6000612181868287016120db565b9350506020612192868287016120db565b92505060406121a386828701612026565b9150509250925092565b6000602082840312156121c3576121c2611e8e565b5b60006121d1848285016120db565b91505092915050565b6121e381611f1d565b81146121ee57600080fd5b50565b600081359050612200816121da565b92915050565b6000806040838503121561221d5761221c611e8e565b5b600061222b858286016120db565b925050602061223c858286016121f1565b9150509250929050565b600080fd5b600080fd5b7f4e487b7100000000000000000000000000000000000000000000000000000000600052604160045260246000fd5b61228882611f99565b810181811067ffffffffffffffff821117156122a7576122a6612250565b5b80604052505050565b60006122ba611e84565b90506122c6828261227f565b919050565b600067ffffffffffffffff8211156122e6576122e5612250565b5b6122ef82611f99565b9050602081019050919050565b82818337600083830152505050565b600061231e612319846122cb565b6122b0565b90508281526020810184848401111561233a5761233961224b565b5b6123458482856122fc565b509392505050565b600082601f83011261236257612361612246565b5b813561237284826020860161230b565b91505092915050565b6000806000806080858703121561239557612394611e8e565b5b60006123a3878288016120db565b94505060206123b4878288016120db565b93505060406123c587828801612026565b925050606085013567ffffffffffffffff8111156123e6576123e5611e93565b5b6123f28782880161234d565b91505092959194509250565b6000806040838503121561241557612414611e8e565b5b6000612423858286016120db565b9250506020612434858286016120db565b9150509250929050565b7f4e487b7100000000000000000000000000000000000000000000000000000000600052602260045260246000fd5b6000600282049050600182168061248557607f821691505b6020821081036124985761249761243e565b5b50919050565b60006060820190506124b3600083018661209a565b6124c06020830185612130565b6124cd604083018461209a565b949350505050565b7f596f7520646f206e6f74206f776e20746865206b6579206f662074686973206160008201527f72746973742e0000000000000000000000000000000000000000000000000000602082015250565b6000612531602683611f5e565b915061253c826124d5565b604082019050919050565b6000602082019050818103600083015261256081612524565b9050919050565b7f596f7520616c7265616479206f776e207468697320636f6c6c65637461626c6560008201527f206d757369632e00000000000000000000000000000000000000000000000000602082015250565b60006125c3602783611f5e565b91506125ce82612567565b604082019050919050565b600060208201905081810360008301526125f2816125b6565b9050919050565b7f4e487b7100000000000000000000000000000000000000000000000000000000600052601160045260246000fd5b600061263382612005565b91507fffffffffffffffffffffffffffffffffffffffffffffffffffffffffffffffff8203612665576126646125f9565b5b600182019050919050565b7f5468652066697273742065646974696f6e20686173206265656e20616c72656160008201527f64792073656e742e000000000000000000000000000000000000000000000000602082015250565b60006126cc602883611f5e565b91506126d782612670565b604082019050919050565b600060208201905081810360008301526126fb816126bf565b9050919050565b6000604082019050612717600083018561209a565b612724602083018461209a565b9392505050565b60008151905061273a8161200f565b92915050565b60006020828403121561275657612755611e8e565b5b60006127648482850161272b565b91505092915050565b600081905092915050565b600061278382611f53565b61278d818561276d565b935061279d818560208601611f6f565b80840191505092915050565b60006127b58285612778565b91506127c18284612778565b91508190509392505050565b60008190508160005260206000209050919050565b60006020601f8301049050919050565b600082821b905092915050565b60006008830261282f7fffffffffffffffffffffffffffffffffffffffffffffffffffffffffffffffff826127f2565b61283986836127f2565b95508019841693508086168417925050509392505050565b6000819050919050565b600061287661287161286c84612005565b612851565b612005565b9050919050565b6000819050919050565b6128908361285b565b6128a461289c8261287d565b8484546127ff565b825550505050565b600090565b6128b96128ac565b6128c4818484612887565b505050565b5b818110156128e8576128dd6000826128b1565b6001810190506128ca565b5050565b601f82111561292d576128fe816127cd565b612907846127e2565b81016020851015612916578190505b61292a612922856127e2565b8301826128c9565b50505b505050565b600082821c905092915050565b600061295060001984600802612932565b1980831691505092915050565b6000612969838361293f565b9150826002028217905092915050565b61298282611f53565b67ffffffffffffffff81111561299b5761299a612250565b5b6129a5825461246d565b6129b08282856128ec565b600060209050601f8311600181146129e357600084156129d1578287015190505b6129db858261295d565b865550612a43565b601f1984166129f1866127cd565b60005b82811015612a19578489015182556001820191506020850194506020810190506129f4565b86831015612a365784890151612a32601f89168261293f565b8355505b6001600288020188555050505b505050505050565b600081519050919050565b600082825260208201905092915050565b6000612a7282612a4b565b612a7c8185612a56565b9350612a8c818560208601611f6f565b612a9581611f99565b840191505092915050565b6000608082019050612ab5600083018761209a565b612ac2602083018661209a565b612acf6040830185612130565b8181036060830152612ae18184612a67565b905095945050505050565b600081519050612afb81611ec4565b92915050565b600060208284031215612b1757612b16611e8e565b5b6000612b2584828501612aec565b91505092915050565b6000604082019050612b43600083018561209a565b612b506020830184612130565b9392505050565b7f4e487b7100000000000000000000000000000000000000000000000000000000600052601260045260246000fdfea26469706673582212201155a52f5537d9316fb5b437bd02e7de58c1b34bf43ee81e41676b595032d06964736f6c63430008140033a2646970667358221220c21e3db7871b06e1f99ab3873321a5cdd7ff41a6f25f42c16cdca8ab22744f3064736f6c63430008140033",
  "linkReferences": {},
  "deployedLinkReferences": {}
}